{
  "_format": "hh-sol-artifact-1",
  "contractName": "HxToken",
  "sourceName": "contracts/HxToken.sol",
  "abi": [
    {
      "inputs": [
        {
          "internalType": "string",
          "name": "_name",
          "type": "string"
        },
        {
          "internalType": "string",
          "name": "_symbol",
          "type": "string"
        }
      ],
      "stateMutability": "nonpayable",
      "type": "constructor"
    },
    {
      "inputs": [
        {
          "internalType": "address",
          "name": "sender",
          "type": "address"
        },
        {
          "internalType": "uint256",
          "name": "tokenId",
          "type": "uint256"
        },
        {
          "internalType": "address",
          "name": "owner",
          "type": "address"
        }
      ],
      "name": "ERC721IncorrectOwner",
      "type": "error"
    },
    {
      "inputs": [
        {
          "internalType": "address",
          "name": "operator",
          "type": "address"
        },
        {
          "internalType": "uint256",
          "name": "tokenId",
          "type": "uint256"
        }
      ],
      "name": "ERC721InsufficientApproval",
      "type": "error"
    },
    {
      "inputs": [
        {
          "internalType": "address",
          "name": "approver",
          "type": "address"
        }
      ],
      "name": "ERC721InvalidApprover",
      "type": "error"
    },
    {
      "inputs": [
        {
          "internalType": "address",
          "name": "operator",
          "type": "address"
        }
      ],
      "name": "ERC721InvalidOperator",
      "type": "error"
    },
    {
      "inputs": [
        {
          "internalType": "address",
          "name": "owner",
          "type": "address"
        }
      ],
      "name": "ERC721InvalidOwner",
      "type": "error"
    },
    {
      "inputs": [
        {
          "internalType": "address",
          "name": "receiver",
          "type": "address"
        }
      ],
      "name": "ERC721InvalidReceiver",
      "type": "error"
    },
    {
      "inputs": [
        {
          "internalType": "address",
          "name": "sender",
          "type": "address"
        }
      ],
      "name": "ERC721InvalidSender",
      "type": "error"
    },
    {
      "inputs": [
        {
          "internalType": "uint256",
          "name": "tokenId",
          "type": "uint256"
        }
      ],
      "name": "ERC721NonexistentToken",
      "type": "error"
    },
    {
      "inputs": [
        {
          "internalType": "uint256",
          "name": "",
          "type": "uint256"
        }
      ],
      "name": "TokenIdAlreadyExits",
      "type": "error"
    },
    {
      "anonymous": false,
      "inputs": [
        {
          "indexed": true,
          "internalType": "address",
          "name": "owner",
          "type": "address"
        },
        {
          "indexed": true,
          "internalType": "address",
          "name": "approved",
          "type": "address"
        },
        {
          "indexed": true,
          "internalType": "uint256",
          "name": "tokenId",
          "type": "uint256"
        }
      ],
      "name": "Approval",
      "type": "event"
    },
    {
      "anonymous": false,
      "inputs": [
        {
          "indexed": true,
          "internalType": "address",
          "name": "owner",
          "type": "address"
        },
        {
          "indexed": true,
          "internalType": "address",
          "name": "operator",
          "type": "address"
        },
        {
          "indexed": false,
          "internalType": "bool",
          "name": "approved",
          "type": "bool"
        }
      ],
      "name": "ApprovalForAll",
      "type": "event"
    },
    {
      "anonymous": false,
      "inputs": [
        {
          "indexed": true,
          "internalType": "address",
          "name": "from",
          "type": "address"
        },
        {
          "indexed": true,
          "internalType": "address",
          "name": "to",
          "type": "address"
        },
        {
          "indexed": true,
          "internalType": "uint256",
          "name": "tokenId",
          "type": "uint256"
        }
      ],
      "name": "Transfer",
      "type": "event"
    },
    {
      "inputs": [
        {
          "internalType": "address",
          "name": "to",
          "type": "address"
        },
        {
          "internalType": "uint256",
          "name": "tokenId",
          "type": "uint256"
        }
      ],
      "name": "approve",
      "outputs": [],
      "stateMutability": "nonpayable",
      "type": "function"
    },
    {
      "inputs": [
        {
          "internalType": "address",
          "name": "owner",
          "type": "address"
        }
      ],
      "name": "balanceOf",
      "outputs": [
        {
          "internalType": "uint256",
          "name": "",
          "type": "uint256"
        }
      ],
      "stateMutability": "view",
      "type": "function"
    },
    {
      "inputs": [
        {
          "internalType": "uint256",
          "name": "tokenId",
          "type": "uint256"
        }
      ],
      "name": "getApproved",
      "outputs": [
        {
          "internalType": "address",
          "name": "",
          "type": "address"
        }
      ],
      "stateMutability": "view",
      "type": "function"
    },
    {
      "inputs": [
        {
          "internalType": "address",
          "name": "owner",
          "type": "address"
        },
        {
          "internalType": "address",
          "name": "operator",
          "type": "address"
        }
      ],
      "name": "isApprovedForAll",
      "outputs": [
        {
          "internalType": "bool",
          "name": "",
          "type": "bool"
        }
      ],
      "stateMutability": "view",
      "type": "function"
    },
    {
      "inputs": [
        {
          "internalType": "address",
          "name": "_to",
          "type": "address"
        },
        {
          "internalType": "uint256",
          "name": "tokenId",
          "type": "uint256"
        }
      ],
      "name": "mintTo",
      "outputs": [],
      "stateMutability": "nonpayable",
      "type": "function"
    },
    {
      "inputs": [],
      "name": "name",
      "outputs": [
        {
          "internalType": "string",
          "name": "",
          "type": "string"
        }
      ],
      "stateMutability": "view",
      "type": "function"
    },
    {
      "inputs": [
        {
          "internalType": "uint256",
          "name": "tokenId",
          "type": "uint256"
        }
      ],
      "name": "ownerOf",
      "outputs": [
        {
          "internalType": "address",
          "name": "",
          "type": "address"
        }
      ],
      "stateMutability": "view",
      "type": "function"
    },
    {
      "inputs": [
        {
          "internalType": "address",
          "name": "from",
          "type": "address"
        },
        {
          "internalType": "address",
          "name": "to",
          "type": "address"
        },
        {
          "internalType": "uint256",
          "name": "tokenId",
          "type": "uint256"
        }
      ],
      "name": "safeTransferFrom",
      "outputs": [],
      "stateMutability": "nonpayable",
      "type": "function"
    },
    {
      "inputs": [
        {
          "internalType": "address",
          "name": "from",
          "type": "address"
        },
        {
          "internalType": "address",
          "name": "to",
          "type": "address"
        },
        {
          "internalType": "uint256",
          "name": "tokenId",
          "type": "uint256"
        },
        {
          "internalType": "bytes",
          "name": "data",
          "type": "bytes"
        }
      ],
      "name": "safeTransferFrom",
      "outputs": [],
      "stateMutability": "nonpayable",
      "type": "function"
    },
    {
      "inputs": [
        {
          "internalType": "address",
          "name": "operator",
          "type": "address"
        },
        {
          "internalType": "bool",
          "name": "approved",
          "type": "bool"
        }
      ],
      "name": "setApprovalForAll",
      "outputs": [],
      "stateMutability": "nonpayable",
      "type": "function"
    },
    {
      "inputs": [
        {
          "internalType": "bytes4",
          "name": "interfaceId",
          "type": "bytes4"
        }
      ],
      "name": "supportsInterface",
      "outputs": [
        {
          "internalType": "bool",
          "name": "",
          "type": "bool"
        }
      ],
      "stateMutability": "view",
      "type": "function"
    },
    {
      "inputs": [],
      "name": "symbol",
      "outputs": [
        {
          "internalType": "string",
          "name": "",
          "type": "string"
        }
      ],
      "stateMutability": "view",
      "type": "function"
    },
    {
      "inputs": [
        {
          "internalType": "uint256",
          "name": "tokenId",
          "type": "uint256"
        }
      ],
      "name": "tokenURI",
      "outputs": [
        {
          "internalType": "string",
          "name": "",
          "type": "string"
        }
      ],
      "stateMutability": "pure",
      "type": "function"
    },
    {
      "inputs": [
        {
          "internalType": "address",
          "name": "from",
          "type": "address"
        },
        {
          "internalType": "address",
          "name": "to",
          "type": "address"
        },
        {
          "internalType": "uint256",
          "name": "tokenId",
          "type": "uint256"
        }
      ],
      "name": "transferFrom",
      "outputs": [],
      "stateMutability": "nonpayable",
      "type": "function"
    }
  ],
  "bytecode": "0x60806040523480156200001157600080fd5b5060405162002b2438038062002b248339818101604052810190620000379190620001fa565b818181600090816200004a9190620004ca565b5080600190816200005c9190620004ca565b5050505050620005b1565b6000604051905090565b600080fd5b600080fd5b600080fd5b600080fd5b6000601f19601f8301169050919050565b7f4e487b7100000000000000000000000000000000000000000000000000000000600052604160045260246000fd5b620000d08262000085565b810181811067ffffffffffffffff82111715620000f257620000f162000096565b5b80604052505050565b60006200010762000067565b9050620001158282620000c5565b919050565b600067ffffffffffffffff82111562000138576200013762000096565b5b620001438262000085565b9050602081019050919050565b60005b838110156200017057808201518184015260208101905062000153565b60008484015250505050565b6000620001936200018d846200011a565b620000fb565b905082815260208101848484011115620001b257620001b162000080565b5b620001bf84828562000150565b509392505050565b600082601f830112620001df57620001de6200007b565b5b8151620001f18482602086016200017c565b91505092915050565b6000806040838503121562000214576200021362000071565b5b600083015167ffffffffffffffff81111562000235576200023462000076565b5b6200024385828601620001c7565b925050602083015167ffffffffffffffff81111562000267576200026662000076565b5b6200027585828601620001c7565b9150509250929050565b600081519050919050565b7f4e487b7100000000000000000000000000000000000000000000000000000000600052602260045260246000fd5b60006002820490506001821680620002d257607f821691505b602082108103620002e857620002e76200028a565b5b50919050565b60008190508160005260206000209050919050565b60006020601f8301049050919050565b600082821b905092915050565b600060088302620003527fffffffffffffffffffffffffffffffffffffffffffffffffffffffffffffffff8262000313565b6200035e868362000313565b95508019841693508086168417925050509392505050565b6000819050919050565b6000819050919050565b6000620003ab620003a56200039f8462000376565b62000380565b62000376565b9050919050565b6000819050919050565b620003c7836200038a565b620003df620003d682620003b2565b84845462000320565b825550505050565b600090565b620003f6620003e7565b62000403818484620003bc565b505050565b5b818110156200042b576200041f600082620003ec565b60018101905062000409565b5050565b601f8211156200047a576200044481620002ee565b6200044f8462000303565b810160208510156200045f578190505b620004776200046e8562000303565b83018262000408565b50505b505050565b600082821c905092915050565b60006200049f600019846008026200047f565b1980831691505092915050565b6000620004ba83836200048c565b9150826002028217905092915050565b620004d5826200027f565b67ffffffffffffffff811115620004f157620004f062000096565b5b620004fd8254620002b9565b6200050a8282856200042f565b600060209050601f8311600181146200054257600084156200052d578287015190505b620005398582620004ac565b865550620005a9565b601f1984166200055286620002ee565b60005b828110156200057c5784890151825560018201915060208501945060208101905062000555565b868310156200059c578489015162000598601f8916826200048c565b8355505b6001600288020188555050505b505050505050565b61256380620005c16000396000f3fe608060405234801561001057600080fd5b50600436106100ea5760003560e01c80636352211e1161008c578063a22cb46511610066578063a22cb4651461025b578063b88d4fde14610277578063c87b56dd14610293578063e985e9c5146102c3576100ea565b80636352211e146101dd57806370a082311461020d57806395d89b411461023d576100ea565b8063095ea7b3116100c8578063095ea7b31461016d57806323b872dd1461018957806342842e0e146101a5578063449a52f8146101c1576100ea565b806301ffc9a7146100ef57806306fdde031461011f578063081812fc1461013d575b600080fd5b61010960048036038101906101049190611921565b6102f3565b6040516101169190611969565b60405180910390f35b6101276103d5565b6040516101349190611a14565b60405180910390f35b61015760048036038101906101529190611a6c565b610467565b6040516101649190611ada565b60405180910390f35b61018760048036038101906101829190611b21565b610483565b005b6101a3600480360381019061019e9190611b61565b610499565b005b6101bf60048036038101906101ba9190611b61565b61059b565b005b6101db60048036038101906101d69190611b21565b6105bb565b005b6101f760048036038101906101f29190611a6c565b610642565b6040516102049190611ada565b60405180910390f35b61022760048036038101906102229190611bb4565b610654565b6040516102349190611bf0565b60405180910390f35b61024561070e565b6040516102529190611a14565b60405180910390f35b61027560048036038101906102709190611c37565b6107a0565b005b610291600480360381019061028c9190611dac565b6107b6565b005b6102ad60048036038101906102a89190611a6c565b6107d3565b6040516102ba9190611a14565b60405180910390f35b6102dd60048036038101906102d89190611e2f565b61095e565b6040516102ea9190611969565b60405180910390f35b60007f80ac58cd000000000000000000000000000000000000000000000000000000007bffffffffffffffffffffffffffffffffffffffffffffffffffffffff1916827bffffffffffffffffffffffffffffffffffffffffffffffffffffffff191614806103be57507f5b5e139f000000000000000000000000000000000000000000000000000000007bffffffffffffffffffffffffffffffffffffffffffffffffffffffff1916827bffffffffffffffffffffffffffffffffffffffffffffffffffffffff1916145b806103ce57506103cd826109f2565b5b9050919050565b6060600080546103e490611e9e565b80601f016020809104026020016040519081016040528092919081815260200182805461041090611e9e565b801561045d5780601f106104325761010080835404028352916020019161045d565b820191906000526020600020905b81548152906001019060200180831161044057829003601f168201915b5050505050905090565b600061047282610a5c565b5061047c82610ae4565b9050919050565b6104958282610490610b21565b610b29565b5050565b600073ffffffffffffffffffffffffffffffffffffffff168273ffffffffffffffffffffffffffffffffffffffff160361050b5760006040517f64a0ae920000000000000000000000000000000000000000000000000000000081526004016105029190611ada565b60405180910390fd5b600061051f838361051a610b21565b610b3b565b90508373ffffffffffffffffffffffffffffffffffffffff168173ffffffffffffffffffffffffffffffffffffffff1614610595578382826040517f64283d7b00000000000000000000000000000000000000000000000000000000815260040161058c93929190611ecf565b60405180910390fd5b50505050565b6105b6838383604051806020016040528060008152506107b6565b505050565b600073ffffffffffffffffffffffffffffffffffffffff166105dc82610d55565b73ffffffffffffffffffffffffffffffffffffffff161461063457806040517fae0b8e8e00000000000000000000000000000000000000000000000000000000815260040161062b9190611bf0565b60405180910390fd5b61063e8282610d92565b5050565b600061064d82610a5c565b9050919050565b60008073ffffffffffffffffffffffffffffffffffffffff168273ffffffffffffffffffffffffffffffffffffffff16036106c75760006040517f89c62b640000000000000000000000000000000000000000000000000000000081526004016106be9190611ada565b60405180910390fd5b600360008373ffffffffffffffffffffffffffffffffffffffff1673ffffffffffffffffffffffffffffffffffffffff168152602001908152602001600020549050919050565b60606001805461071d90611e9e565b80601f016020809104026020016040519081016040528092919081815260200182805461074990611e9e565b80156107965780601f1061076b57610100808354040283529160200191610796565b820191906000526020600020905b81548152906001019060200180831161077957829003601f168201915b5050505050905090565b6107b26107ab610b21565b8383610e8b565b5050565b6107c1848484610499565b6107cd84848484610ffa565b50505050565b60606107dd61188e565b604051806101200160405280610100815260200161242e61010091398160006003811061080d5761080c611f06565b5b602002018190525061081e836111b1565b8160016003811061083257610831611f06565b5b60200201819052506040518060400160405280600d81526020017f3c2f746578743e3c2f7376673e000000000000000000000000000000000000008152508160026003811061088457610883611f06565b5b6020020181905250600061093361089a856111b1565b61090e846000600381106108b1576108b0611f06565b5b6020020151856001600381106108ca576108c9611f06565b5b6020020151866002600381106108e3576108e2611f06565b5b60200201516040516020016108fa93929190611f71565b60405160208183030381529060405261127f565b60405160200161091f92919061211e565b60405160208183030381529060405261127f565b90508060405160200161094691906121ba565b60405160208183030381529060405292505050919050565b6000600560008473ffffffffffffffffffffffffffffffffffffffff1673ffffffffffffffffffffffffffffffffffffffff16815260200190815260200160002060008373ffffffffffffffffffffffffffffffffffffffff1673ffffffffffffffffffffffffffffffffffffffff16815260200190815260200160002060009054906101000a900460ff16905092915050565b60007f01ffc9a7000000000000000000000000000000000000000000000000000000007bffffffffffffffffffffffffffffffffffffffffffffffffffffffff1916827bffffffffffffffffffffffffffffffffffffffffffffffffffffffff1916149050919050565b600080610a6883610d55565b9050600073ffffffffffffffffffffffffffffffffffffffff168173ffffffffffffffffffffffffffffffffffffffff1603610adb57826040517f7e273289000000000000000000000000000000000000000000000000000000008152600401610ad29190611bf0565b60405180910390fd5b80915050919050565b60006004600083815260200190815260200160002060009054906101000a900473ffffffffffffffffffffffffffffffffffffffff169050919050565b600033905090565b610b3683838360016113f1565b505050565b600080610b4784610d55565b9050600073ffffffffffffffffffffffffffffffffffffffff168373ffffffffffffffffffffffffffffffffffffffff1614610b8957610b888184866115b6565b5b600073ffffffffffffffffffffffffffffffffffffffff168173ffffffffffffffffffffffffffffffffffffffff1614610c1a57610bcb6000856000806113f1565b6001600360008373ffffffffffffffffffffffffffffffffffffffff1673ffffffffffffffffffffffffffffffffffffffff168152602001908152602001600020600082825403925050819055505b600073ffffffffffffffffffffffffffffffffffffffff168573ffffffffffffffffffffffffffffffffffffffff1614610c9d576001600360008773ffffffffffffffffffffffffffffffffffffffff1673ffffffffffffffffffffffffffffffffffffffff168152602001908152602001600020600082825401925050819055505b846002600086815260200190815260200160002060006101000a81548173ffffffffffffffffffffffffffffffffffffffff021916908373ffffffffffffffffffffffffffffffffffffffff160217905550838573ffffffffffffffffffffffffffffffffffffffff168273ffffffffffffffffffffffffffffffffffffffff167fddf252ad1be2c89b69c2b068fc378daa952ba7f163c4a11628f55a4df523b3ef60405160405180910390a4809150509392505050565b60006002600083815260200190815260200160002060009054906101000a900473ffffffffffffffffffffffffffffffffffffffff169050919050565b600073ffffffffffffffffffffffffffffffffffffffff168273ffffffffffffffffffffffffffffffffffffffff1603610e045760006040517f64a0ae92000000000000000000000000000000000000000000000000000000008152600401610dfb9190611ada565b60405180910390fd5b6000610e1283836000610b3b565b9050600073ffffffffffffffffffffffffffffffffffffffff168173ffffffffffffffffffffffffffffffffffffffff1614610e865760006040517f73c6ac6e000000000000000000000000000000000000000000000000000000008152600401610e7d9190611ada565b60405180910390fd5b505050565b600073ffffffffffffffffffffffffffffffffffffffff168273ffffffffffffffffffffffffffffffffffffffff1603610efc57816040517f5b08ba18000000000000000000000000000000000000000000000000000000008152600401610ef39190611ada565b60405180910390fd5b80600560008573ffffffffffffffffffffffffffffffffffffffff1673ffffffffffffffffffffffffffffffffffffffff16815260200190815260200160002060008473ffffffffffffffffffffffffffffffffffffffff1673ffffffffffffffffffffffffffffffffffffffff16815260200190815260200160002060006101000a81548160ff0219169083151502179055508173ffffffffffffffffffffffffffffffffffffffff168373ffffffffffffffffffffffffffffffffffffffff167f17307eab39ab6107e8899845ad3d59bd9653f200f220920489ca2b5937696c3183604051610fed9190611969565b60405180910390a3505050565b60008373ffffffffffffffffffffffffffffffffffffffff163b11156111ab578273ffffffffffffffffffffffffffffffffffffffff1663150b7a0261103e610b21565b8685856040518563ffffffff1660e01b81526004016110609493929190612231565b6020604051808303816000875af192505050801561109c57506040513d601f19601f820116820180604052508101906110999190612292565b60015b611120573d80600081146110cc576040519150601f19603f3d011682016040523d82523d6000602084013e6110d1565b606091505b50600081510361111857836040517f64a0ae9200000000000000000000000000000000000000000000000000000000815260040161110f9190611ada565b60405180910390fd5b805181602001fd5b63150b7a0260e01b7bffffffffffffffffffffffffffffffffffffffffffffffffffffffff1916817bffffffffffffffffffffffffffffffffffffffffffffffffffffffff1916146111a957836040517f64a0ae920000000000000000000000000000000000000000000000000000000081526004016111a09190611ada565b60405180910390fd5b505b50505050565b6060600060016111c08461167a565b01905060008167ffffffffffffffff8111156111df576111de611c81565b5b6040519080825280601f01601f1916602001820160405280156112115781602001600182028036833780820191505090505b509050600082602001820190505b600115611274578080600190039150507f3031323334353637383961626364656600000000000000000000000000000000600a86061a8153600a8581611268576112676122bf565b5b0494506000850361121f575b819350505050919050565b606060008251036112a1576040518060200160405280600081525090506113ec565b60006040518060600160405280604081526020016123ee60409139905060006003600285516112d0919061231d565b6112da9190612351565b60046112e69190612382565b67ffffffffffffffff8111156112ff576112fe611c81565b5b6040519080825280601f01601f1916602001820160405280156113315781602001600182028036833780820191505090505b50905060018201602082018586518701602081018051600082525b828410156113a7576003840193508351603f8160121c168701518653600186019550603f81600c1c168701518653600186019550603f8160061c168701518653600186019550603f811687015186536001860195505061134c565b80825260038a5106600181146113c457600281146113d7576113df565b603d6001870353603d60028703536113df565b603d60018703535b5050505050505080925050505b919050565b808061142a5750600073ffffffffffffffffffffffffffffffffffffffff168273ffffffffffffffffffffffffffffffffffffffff1614155b1561155e57600061143a84610a5c565b9050600073ffffffffffffffffffffffffffffffffffffffff168373ffffffffffffffffffffffffffffffffffffffff16141580156114a557508273ffffffffffffffffffffffffffffffffffffffff168173ffffffffffffffffffffffffffffffffffffffff1614155b80156114b857506114b6818461095e565b155b156114fa57826040517fa9fbf51f0000000000000000000000000000000000000000000000000000000081526004016114f19190611ada565b60405180910390fd5b811561155c57838573ffffffffffffffffffffffffffffffffffffffff168273ffffffffffffffffffffffffffffffffffffffff167f8c5be1e5ebec7d5bd14f71427d1e84f3dd0314c0f7b2291e5b200ac8c7c3b92560405160405180910390a45b505b836004600085815260200190815260200160002060006101000a81548173ffffffffffffffffffffffffffffffffffffffff021916908373ffffffffffffffffffffffffffffffffffffffff16021790555050505050565b6115c18383836117cd565b61167557600073ffffffffffffffffffffffffffffffffffffffff168373ffffffffffffffffffffffffffffffffffffffff160361163657806040517f7e27328900000000000000000000000000000000000000000000000000000000815260040161162d9190611bf0565b60405180910390fd5b81816040517f177e802f00000000000000000000000000000000000000000000000000000000815260040161166c9291906123c4565b60405180910390fd5b505050565b600080600090507a184f03e93ff9f4daa797ed6e38ed64bf6a1f01000000000000000083106116d8577a184f03e93ff9f4daa797ed6e38ed64bf6a1f01000000000000000083816116ce576116cd6122bf565b5b0492506040810190505b6d04ee2d6d415b85acef81000000008310611715576d04ee2d6d415b85acef8100000000838161170b5761170a6122bf565b5b0492506020810190505b662386f26fc10000831061174457662386f26fc10000838161173a576117396122bf565b5b0492506010810190505b6305f5e100831061176d576305f5e1008381611763576117626122bf565b5b0492506008810190505b6127108310611792576127108381611788576117876122bf565b5b0492506004810190505b606483106117b557606483816117ab576117aa6122bf565b5b0492506002810190505b600a83106117c4576001810190505b80915050919050565b60008073ffffffffffffffffffffffffffffffffffffffff168373ffffffffffffffffffffffffffffffffffffffff161415801561188557508273ffffffffffffffffffffffffffffffffffffffff168473ffffffffffffffffffffffffffffffffffffffff1614806118465750611845848461095e565b5b8061188457508273ffffffffffffffffffffffffffffffffffffffff1661186c83610ae4565b73ffffffffffffffffffffffffffffffffffffffff16145b5b90509392505050565b60405180606001604052806003905b606081526020019060019003908161189d5790505090565b6000604051905090565b600080fd5b600080fd5b60007fffffffff0000000000000000000000000000000000000000000000000000000082169050919050565b6118fe816118c9565b811461190957600080fd5b50565b60008135905061191b816118f5565b92915050565b600060208284031215611937576119366118bf565b5b60006119458482850161190c565b91505092915050565b60008115159050919050565b6119638161194e565b82525050565b600060208201905061197e600083018461195a565b92915050565b600081519050919050565b600082825260208201905092915050565b60005b838110156119be5780820151818401526020810190506119a3565b60008484015250505050565b6000601f19601f8301169050919050565b60006119e682611984565b6119f0818561198f565b9350611a008185602086016119a0565b611a09816119ca565b840191505092915050565b60006020820190508181036000830152611a2e81846119db565b905092915050565b6000819050919050565b611a4981611a36565b8114611a5457600080fd5b50565b600081359050611a6681611a40565b92915050565b600060208284031215611a8257611a816118bf565b5b6000611a9084828501611a57565b91505092915050565b600073ffffffffffffffffffffffffffffffffffffffff82169050919050565b6000611ac482611a99565b9050919050565b611ad481611ab9565b82525050565b6000602082019050611aef6000830184611acb565b92915050565b611afe81611ab9565b8114611b0957600080fd5b50565b600081359050611b1b81611af5565b92915050565b60008060408385031215611b3857611b376118bf565b5b6000611b4685828601611b0c565b9250506020611b5785828601611a57565b9150509250929050565b600080600060608486031215611b7a57611b796118bf565b5b6000611b8886828701611b0c565b9350506020611b9986828701611b0c565b9250506040611baa86828701611a57565b9150509250925092565b600060208284031215611bca57611bc96118bf565b5b6000611bd884828501611b0c565b91505092915050565b611bea81611a36565b82525050565b6000602082019050611c056000830184611be1565b92915050565b611c148161194e565b8114611c1f57600080fd5b50565b600081359050611c3181611c0b565b92915050565b60008060408385031215611c4e57611c4d6118bf565b5b6000611c5c85828601611b0c565b9250506020611c6d85828601611c22565b9150509250929050565b600080fd5b600080fd5b7f4e487b7100000000000000000000000000000000000000000000000000000000600052604160045260246000fd5b611cb9826119ca565b810181811067ffffffffffffffff82111715611cd857611cd7611c81565b5b80604052505050565b6000611ceb6118b5565b9050611cf78282611cb0565b919050565b600067ffffffffffffffff821115611d1757611d16611c81565b5b611d20826119ca565b9050602081019050919050565b82818337600083830152505050565b6000611d4f611d4a84611cfc565b611ce1565b905082815260208101848484011115611d6b57611d6a611c7c565b5b611d76848285611d2d565b509392505050565b600082601f830112611d9357611d92611c77565b5b8135611da3848260208601611d3c565b91505092915050565b60008060008060808587031215611dc657611dc56118bf565b5b6000611dd487828801611b0c565b9450506020611de587828801611b0c565b9350506040611df687828801611a57565b925050606085013567ffffffffffffffff811115611e1757611e166118c4565b5b611e2387828801611d7e565b91505092959194509250565b60008060408385031215611e4657611e456118bf565b5b6000611e5485828601611b0c565b9250506020611e6585828601611b0c565b9150509250929050565b7f4e487b7100000000000000000000000000000000000000000000000000000000600052602260045260246000fd5b60006002820490506001821680611eb657607f821691505b602082108103611ec957611ec8611e6f565b5b50919050565b6000606082019050611ee46000830186611acb565b611ef16020830185611be1565b611efe6040830184611acb565b949350505050565b7f4e487b7100000000000000000000000000000000000000000000000000000000600052603260045260246000fd5b600081905092915050565b6000611f4b82611984565b611f558185611f35565b9350611f658185602086016119a0565b80840191505092915050565b6000611f7d8286611f40565b9150611f898285611f40565b9150611f958284611f40565b9150819050949350505050565b7f7b226e616d65223a224878202300000000000000000000000000000000000000600082015250565b6000611fd8600d83611f35565b9150611fe382611fa2565b600d82019050919050565b7f222c226465736372697074696f6e223a224878204e46542077697468206f6e2d60008201527f636861696e2053564720696d6167652e222c0000000000000000000000000000602082015250565b600061204a603283611f35565b915061205582611fee565b603282019050919050565b7f22696d616765223a2022646174613a696d6167652f7376672b786d6c3b62617360008201527f6536342c00000000000000000000000000000000000000000000000000000000602082015250565b60006120bc602483611f35565b91506120c782612060565b602482019050919050565b7f227d000000000000000000000000000000000000000000000000000000000000600082015250565b6000612108600283611f35565b9150612113826120d2565b600282019050919050565b600061212982611fcb565b91506121358285611f40565b91506121408261203d565b915061214b826120af565b91506121578284611f40565b9150612162826120fb565b91508190509392505050565b7f646174613a6170706c69636174696f6e2f6a736f6e3b6261736536342c000000600082015250565b60006121a4601d83611f35565b91506121af8261216e565b601d82019050919050565b60006121c582612197565b91506121d18284611f40565b915081905092915050565b600081519050919050565b600082825260208201905092915050565b6000612203826121dc565b61220d81856121e7565b935061221d8185602086016119a0565b612226816119ca565b840191505092915050565b60006080820190506122466000830187611acb565b6122536020830186611acb565b6122606040830185611be1565b818103606083015261227281846121f8565b905095945050505050565b60008151905061228c816118f5565b92915050565b6000602082840312156122a8576122a76118bf565b5b60006122b68482850161227d565b91505092915050565b7f4e487b7100000000000000000000000000000000000000000000000000000000600052601260045260246000fd5b7f4e487b7100000000000000000000000000000000000000000000000000000000600052601160045260246000fd5b600061232882611a36565b915061233383611a36565b925082820190508082111561234b5761234a6122ee565b5b92915050565b600061235c82611a36565b915061236783611a36565b925082612377576123766122bf565b5b828204905092915050565b600061238d82611a36565b915061239883611a36565b92508282026123a681611a36565b915082820484148315176123bd576123bc6122ee565b5b5092915050565b60006040820190506123d96000830185611acb565b6123e66020830184611be1565b939250505056fe4142434445464748494a4b4c4d4e4f505152535455565758595a6162636465666768696a6b6c6d6e6f707172737475767778797a303132333435363738392b2f3c73766720786d6c6e733d27687474703a2f2f7777772e77332e6f72672f323030302f73766727207072657365727665417370656374526174696f3d27784d696e594d696e206d656574272076696577426f783d273020302033353020333530273e3c7374796c653e2e62617365207b2066696c6c3a2077686974653b20666f6e742d66616d696c793a2073657269663b20666f6e742d73697a653a2033303070783b207d3c2f7374796c653e3c726563742077696474683d273130302527206865696768743d2731303025272066696c6c3d2762726f776e27202f3e3c7465787420783d273130302720793d273236302720636c6173733d2762617365273ea264697066735822122061139a95ad605c625ba5baabb04ac39895a9e4ed5d947d18ccee3f42a34b439464736f6c63430008180033",
  "linkReferences": {},
  "deployedLinkReferences": {}
}