{
  "_format": "hh-sol-artifact-1",
  "contractName": "MyMarket",
  "sourceName": "contracts/MyMarket.sol",
  "abi": [
    {
      "inputs": [],
      "stateMutability": "nonpayable",
      "type": "constructor"
    },
    {
      "inputs": [],
      "name": "ReentrancyGuardReentrantCall",
      "type": "error"
    },
    {
      "anonymous": false,
      "inputs": [
        {
          "indexed": true,
          "internalType": "uint256",
          "name": "id",
          "type": "uint256"
        },
        {
          "indexed": true,
          "internalType": "address",
          "name": "nftContract",
          "type": "address"
        },
        {
          "indexed": true,
          "internalType": "uint256",
          "name": "tokenId",
          "type": "uint256"
        },
        {
          "indexed": false,
          "internalType": "address",
          "name": "seller",
          "type": "address"
        },
        {
          "indexed": false,
          "internalType": "address",
          "name": "buyer",
          "type": "address"
        },
        {
          "indexed": false,
          "internalType": "uint256",
          "name": "price",
          "type": "uint256"
        },
        {
          "indexed": false,
          "internalType": "enum MyMarket.State",
          "name": "state",
          "type": "uint8"
        }
      ],
      "name": "MarketItemCreated",
      "type": "event"
    },
    {
      "anonymous": false,
      "inputs": [
        {
          "indexed": true,
          "internalType": "uint256",
          "name": "id",
          "type": "uint256"
        },
        {
          "indexed": true,
          "internalType": "address",
          "name": "nftContract",
          "type": "address"
        },
        {
          "indexed": true,
          "internalType": "uint256",
          "name": "tokenId",
          "type": "uint256"
        },
        {
          "indexed": false,
          "internalType": "address",
          "name": "seller",
          "type": "address"
        },
        {
          "indexed": false,
          "internalType": "address",
          "name": "buyer",
          "type": "address"
        },
        {
          "indexed": false,
          "internalType": "uint256",
          "name": "price",
          "type": "uint256"
        },
        {
          "indexed": false,
          "internalType": "enum MyMarket.State",
          "name": "state",
          "type": "uint8"
        }
      ],
      "name": "MarketItemSold",
      "type": "event"
    },
    {
      "inputs": [
        {
          "internalType": "address",
          "name": "nftContract",
          "type": "address"
        },
        {
          "internalType": "uint256",
          "name": "tokenId",
          "type": "uint256"
        },
        {
          "internalType": "uint256",
          "name": "price",
          "type": "uint256"
        }
      ],
      "name": "createMarketItem",
      "outputs": [],
      "stateMutability": "payable",
      "type": "function"
    },
    {
      "inputs": [
        {
          "internalType": "address",
          "name": "nftContract",
          "type": "address"
        },
        {
          "internalType": "uint256",
          "name": "id",
          "type": "uint256"
        }
      ],
      "name": "createMarketSale",
      "outputs": [],
      "stateMutability": "payable",
      "type": "function"
    },
    {
      "inputs": [
        {
          "internalType": "uint256",
          "name": "itemId",
          "type": "uint256"
        }
      ],
      "name": "deleteMarketItem",
      "outputs": [],
      "stateMutability": "nonpayable",
      "type": "function"
    },
    {
      "inputs": [],
      "name": "fetchActiveItems",
      "outputs": [
        {
          "components": [
            {
              "internalType": "uint256",
              "name": "id",
              "type": "uint256"
            },
            {
              "internalType": "address",
              "name": "nftContract",
              "type": "address"
            },
            {
              "internalType": "uint256",
              "name": "tokenId",
              "type": "uint256"
            },
            {
              "internalType": "address payable",
              "name": "seller",
              "type": "address"
            },
            {
              "internalType": "address payable",
              "name": "buyer",
              "type": "address"
            },
            {
              "internalType": "uint256",
              "name": "price",
              "type": "uint256"
            },
            {
              "internalType": "enum MyMarket.State",
              "name": "state",
              "type": "uint8"
            }
          ],
          "internalType": "struct MyMarket.MarketItem[]",
          "name": "",
          "type": "tuple[]"
        }
      ],
      "stateMutability": "view",
      "type": "function"
    },
    {
      "inputs": [],
      "name": "fetchMyCreatedItems",
      "outputs": [
        {
          "components": [
            {
              "internalType": "uint256",
              "name": "id",
              "type": "uint256"
            },
            {
              "internalType": "address",
              "name": "nftContract",
              "type": "address"
            },
            {
              "internalType": "uint256",
              "name": "tokenId",
              "type": "uint256"
            },
            {
              "internalType": "address payable",
              "name": "seller",
              "type": "address"
            },
            {
              "internalType": "address payable",
              "name": "buyer",
              "type": "address"
            },
            {
              "internalType": "uint256",
              "name": "price",
              "type": "uint256"
            },
            {
              "internalType": "enum MyMarket.State",
              "name": "state",
              "type": "uint8"
            }
          ],
          "internalType": "struct MyMarket.MarketItem[]",
          "name": "",
          "type": "tuple[]"
        }
      ],
      "stateMutability": "view",
      "type": "function"
    },
    {
      "inputs": [],
      "name": "fetchMyPurchasedItems",
      "outputs": [
        {
          "components": [
            {
              "internalType": "uint256",
              "name": "id",
              "type": "uint256"
            },
            {
              "internalType": "address",
              "name": "nftContract",
              "type": "address"
            },
            {
              "internalType": "uint256",
              "name": "tokenId",
              "type": "uint256"
            },
            {
              "internalType": "address payable",
              "name": "seller",
              "type": "address"
            },
            {
              "internalType": "address payable",
              "name": "buyer",
              "type": "address"
            },
            {
              "internalType": "uint256",
              "name": "price",
              "type": "uint256"
            },
            {
              "internalType": "enum MyMarket.State",
              "name": "state",
              "type": "uint8"
            }
          ],
          "internalType": "struct MyMarket.MarketItem[]",
          "name": "",
          "type": "tuple[]"
        }
      ],
      "stateMutability": "view",
      "type": "function"
    },
    {
      "inputs": [],
      "name": "getListingFee",
      "outputs": [
        {
          "internalType": "uint256",
          "name": "",
          "type": "uint256"
        }
      ],
      "stateMutability": "view",
      "type": "function"
    },
    {
      "inputs": [],
      "name": "listingFee",
      "outputs": [
        {
          "internalType": "uint256",
          "name": "",
          "type": "uint256"
        }
      ],
      "stateMutability": "view",
      "type": "function"
    },
    {
      "inputs": [],
      "name": "marketowner",
      "outputs": [
        {
          "internalType": "address payable",
          "name": "",
          "type": "address"
        }
      ],
      "stateMutability": "view",
      "type": "function"
    }
  ],
  "bytecode": "0x6080604052600060015566038d7ea4c6800060045534801561002057600080fd5b50600160008190555033600360006101000a81548173ffffffffffffffffffffffffffffffffffffffff021916908373ffffffffffffffffffffffffffffffffffffffff1602179055506120fd806100796000396000f3fe6080604052600436106100865760003560e01c8063a9c0714511610059578063a9c0714514610128578063ab76ce1614610151578063b8fe6abe1461017c578063c23b139e146101a7578063ef8da9da146101c357610086565b8063332b386b1461008b57806358eb2df5146100b65780635e385b92146100d25780636a1b7ecc146100fd575b600080fd5b34801561009757600080fd5b506100a06101ee565b6040516100ad919061195a565b60405180910390f35b6100d060048036038101906100cb91906119d9565b6101ff565b005b3480156100de57600080fd5b506100e7610635565b6040516100f49190611a3b565b60405180910390f35b34801561010957600080fd5b5061011261065b565b60405161011f9190611a65565b60405180910390f35b34801561013457600080fd5b5061014f600480360381019061014a9190611a80565b610661565b005b34801561015d57600080fd5b50610166610a4a565b604051610173919061195a565b60405180910390f35b34801561018857600080fd5b50610191610a5b565b60405161019e9190611a65565b60405180910390f35b6101c160048036038101906101bc9190611aad565b610a65565b005b3480156101cf57600080fd5b506101d8610e3a565b6040516101e5919061195a565b60405180910390f35b60606101fa6000610e4b565b905090565b6102076113c1565b6000811161024a576040517f08c379a000000000000000000000000000000000000000000000000000000000815260040161024190611b4a565b60405180910390fd5b600454341461028e576040517f08c379a000000000000000000000000000000000000000000000000000000000815260040161028590611bb6565b60405180910390fd5b3073ffffffffffffffffffffffffffffffffffffffff168373ffffffffffffffffffffffffffffffffffffffff1663081812fc846040518263ffffffff1660e01b81526004016102de9190611a65565b602060405180830381865afa1580156102fb573d6000803e3d6000fd5b505050506040513d601f19601f8201168201806040525081019061031f9190611beb565b73ffffffffffffffffffffffffffffffffffffffff1614610375576040517f08c379a000000000000000000000000000000000000000000000000000000000815260040161036c90611c64565b60405180910390fd5b600060016000815461038690611cb3565b919050819055905060008473ffffffffffffffffffffffffffffffffffffffff16636352211e856040518263ffffffff1660e01b81526004016103c99190611a65565b602060405180830381865afa1580156103e6573d6000803e3d6000fd5b505050506040513d601f19601f8201168201806040525081019061040a9190611beb565b90506040518060e001604052808381526020018673ffffffffffffffffffffffffffffffffffffffff1681526020018581526020018273ffffffffffffffffffffffffffffffffffffffff168152602001600073ffffffffffffffffffffffffffffffffffffffff16815260200184815260200160006002811115610492576104916117d2565b5b815250600560008681526020019081526020016000206000820151816000015560208201518160010160006101000a81548173ffffffffffffffffffffffffffffffffffffffff021916908373ffffffffffffffffffffffffffffffffffffffff1602179055506040820151816002015560608201518160030160006101000a81548173ffffffffffffffffffffffffffffffffffffffff021916908373ffffffffffffffffffffffffffffffffffffffff16021790555060808201518160040160006101000a81548173ffffffffffffffffffffffffffffffffffffffff021916908373ffffffffffffffffffffffffffffffffffffffff16021790555060a0820151816005015560c08201518160060160006101000a81548160ff021916908360028111156105c6576105c56117d2565b5b0217905550905050838573ffffffffffffffffffffffffffffffffffffffff16837fb0a8dcfc08f1150d20def3c46440be585f61cce1bdbb0fdf16bc597f471c6e7033600088600060405161061e9493929190611d19565b60405180910390a45050610630611407565b505050565b600360009054906101000a900473ffffffffffffffffffffffffffffffffffffffff1681565b60045481565b6106696113c1565b6001548111156106ae576040517f08c379a00000000000000000000000000000000000000000000000000000000081526004016106a590611daa565b60405180910390fd5b600060028111156106c2576106c16117d2565b5b6005600083815260200190815260200160002060060160009054906101000a900460ff1660028111156106f8576106f76117d2565b5b14610738576040517f08c379a000000000000000000000000000000000000000000000000000000000815260040161072f90611e16565b60405180910390fd5b60006005600083815260200190815260200160002090503373ffffffffffffffffffffffffffffffffffffffff168160010160009054906101000a900473ffffffffffffffffffffffffffffffffffffffff1673ffffffffffffffffffffffffffffffffffffffff16636352211e83600201546040518263ffffffff1660e01b81526004016107c79190611a65565b602060405180830381865afa1580156107e4573d6000803e3d6000fd5b505050506040513d601f19601f820116820180604052508101906108089190611beb565b73ffffffffffffffffffffffffffffffffffffffff161461085e576040517f08c379a000000000000000000000000000000000000000000000000000000000815260040161085590611e82565b60405180910390fd5b3073ffffffffffffffffffffffffffffffffffffffff168160010160009054906101000a900473ffffffffffffffffffffffffffffffffffffffff1673ffffffffffffffffffffffffffffffffffffffff1663081812fc83600201546040518263ffffffff1660e01b81526004016108d69190611a65565b602060405180830381865afa1580156108f3573d6000803e3d6000fd5b505050506040513d601f19601f820116820180604052508101906109179190611beb565b73ffffffffffffffffffffffffffffffffffffffff161461096d576040517f08c379a000000000000000000000000000000000000000000000000000000000815260040161096490611c64565b60405180910390fd5b60028160060160006101000a81548160ff02191690836002811115610995576109946117d2565b5b021790555080600201548160010160009054906101000a900473ffffffffffffffffffffffffffffffffffffffff1673ffffffffffffffffffffffffffffffffffffffff16837f064a9702da2c4a0a9af4cabda06e4715203ed7b0b3bb67eca6d3168e1c519bff8460030160009054906101000a900473ffffffffffffffffffffffffffffffffffffffff166000806002604051610a369493929190611f3c565b60405180910390a450610a47611407565b50565b6060610a566001610e4b565b905090565b6000600454905090565b610a6d6113c1565b6000600560008381526020019081526020016000209050600081600501549050600082600201549050813414610ad8576040517f08c379a0000000000000000000000000000000000000000000000000000000008152600401610acf90611fcd565b60405180910390fd5b3073ffffffffffffffffffffffffffffffffffffffff168573ffffffffffffffffffffffffffffffffffffffff1663081812fc836040518263ffffffff1660e01b8152600401610b289190611a65565b602060405180830381865afa158015610b45573d6000803e3d6000fd5b505050506040513d601f19601f82011682018060405250810190610b699190611beb565b73ffffffffffffffffffffffffffffffffffffffff1614610bbf576040517f08c379a0000000000000000000000000000000000000000000000000000000008152600401610bb690611c64565b60405180910390fd5b338360040160006101000a81548173ffffffffffffffffffffffffffffffffffffffff021916908373ffffffffffffffffffffffffffffffffffffffff16021790555060018360060160006101000a81548160ff02191690836002811115610c2a57610c296117d2565b5b021790555060026000815480929190610c4290611cb3565b91905055508473ffffffffffffffffffffffffffffffffffffffff166323b872dd8460030160009054906101000a900473ffffffffffffffffffffffffffffffffffffffff1633846040518463ffffffff1660e01b8152600401610ca893929190611fed565b600060405180830381600087803b158015610cc257600080fd5b505af1158015610cd6573d6000803e3d6000fd5b50505050600360009054906101000a900473ffffffffffffffffffffffffffffffffffffffff1673ffffffffffffffffffffffffffffffffffffffff166108fc6004549081150290604051600060405180830381858888f19350505050158015610d44573d6000803e3d6000fd5b508260030160009054906101000a900473ffffffffffffffffffffffffffffffffffffffff1673ffffffffffffffffffffffffffffffffffffffff166108fc349081150290604051600060405180830381858888f19350505050158015610daf573d6000803e3d6000fd5b50808573ffffffffffffffffffffffffffffffffffffffff16857f064a9702da2c4a0a9af4cabda06e4715203ed7b0b3bb67eca6d3168e1c519bff8660030160009054906101000a900473ffffffffffffffffffffffffffffffffffffffff1633876001604051610e239493929190612024565b60405180910390a4505050610e36611407565b5050565b6060610e466002610e4b565b905090565b606060006001549050600080600190505b82811161100c57610fe5600560008381526020019081526020016000206040518060e0016040529081600082015481526020016001820160009054906101000a900473ffffffffffffffffffffffffffffffffffffffff1673ffffffffffffffffffffffffffffffffffffffff1673ffffffffffffffffffffffffffffffffffffffff168152602001600282015481526020016003820160009054906101000a900473ffffffffffffffffffffffffffffffffffffffff1673ffffffffffffffffffffffffffffffffffffffff1673ffffffffffffffffffffffffffffffffffffffff1681526020016004820160009054906101000a900473ffffffffffffffffffffffffffffffffffffffff1673ffffffffffffffffffffffffffffffffffffffff1673ffffffffffffffffffffffffffffffffffffffff168152602001600582015481526020016006820160009054906101000a900460ff166002811115610fc957610fc86117d2565b5b6002811115610fdb57610fda6117d2565b5b8152505086611411565b15610ff9578180610ff590611cb3565b9250505b808061100490611cb3565b915050610e5c565b506000808267ffffffffffffffff81111561102a57611029612069565b5b60405190808252806020026020018201604052801561106357816020015b61105061169a565b8152602001906001900390816110485790505b5090506000600190505b8481116113b4576111f6600560008381526020019081526020016000206040518060e0016040529081600082015481526020016001820160009054906101000a900473ffffffffffffffffffffffffffffffffffffffff1673ffffffffffffffffffffffffffffffffffffffff1673ffffffffffffffffffffffffffffffffffffffff168152602001600282015481526020016003820160009054906101000a900473ffffffffffffffffffffffffffffffffffffffff1673ffffffffffffffffffffffffffffffffffffffff1673ffffffffffffffffffffffffffffffffffffffff1681526020016004820160009054906101000a900473ffffffffffffffffffffffffffffffffffffffff1673ffffffffffffffffffffffffffffffffffffffff1673ffffffffffffffffffffffffffffffffffffffff168152602001600582015481526020016006820160009054906101000a900460ff1660028111156111da576111d96117d2565b5b60028111156111ec576111eb6117d2565b5b8152505088611411565b156113a157600560008281526020019081526020016000206040518060e0016040529081600082015481526020016001820160009054906101000a900473ffffffffffffffffffffffffffffffffffffffff1673ffffffffffffffffffffffffffffffffffffffff1673ffffffffffffffffffffffffffffffffffffffff168152602001600282015481526020016003820160009054906101000a900473ffffffffffffffffffffffffffffffffffffffff1673ffffffffffffffffffffffffffffffffffffffff1673ffffffffffffffffffffffffffffffffffffffff1681526020016004820160009054906101000a900473ffffffffffffffffffffffffffffffffffffffff1673ffffffffffffffffffffffffffffffffffffffff1673ffffffffffffffffffffffffffffffffffffffff168152602001600582015481526020016006820160009054906101000a900460ff16600281111561135e5761135d6117d2565b5b60028111156113705761136f6117d2565b5b8152505082848151811061138757611386612098565b5b6020026020010181905250828061139d90611cb3565b9350505b80806113ac90611cb3565b91505061106d565b5080945050505050919050565b6002600054036113fd576040517f3ee5aeb500000000000000000000000000000000000000000000000000000000815260040160405180910390fd5b6002600081905550565b6001600081905550565b6000600280811115611426576114256117d2565b5b826002811115611439576114386117d2565b5b036114ba573373ffffffffffffffffffffffffffffffffffffffff16836060015173ffffffffffffffffffffffffffffffffffffffff161480156114a5575060028081111561148b5761148a6117d2565b5b8360c0015160028111156114a2576114a16117d2565b5b14155b6114b05760006114b3565b60015b9050611694565b600160028111156114ce576114cd6117d2565b5b8260028111156114e1576114e06117d2565b5b0361152e573373ffffffffffffffffffffffffffffffffffffffff16836080015173ffffffffffffffffffffffffffffffffffffffff1614611524576000611527565b60015b9050611694565b60006002811115611542576115416117d2565b5b826002811115611555576115546117d2565b5b0361168f57600073ffffffffffffffffffffffffffffffffffffffff16836080015173ffffffffffffffffffffffffffffffffffffffff161480156115c25750600060028111156115a9576115a86117d2565b5b8360c0015160028111156115c0576115bf6117d2565b5b145b801561167a57503073ffffffffffffffffffffffffffffffffffffffff16836020015173ffffffffffffffffffffffffffffffffffffffff1663081812fc85604001516040518263ffffffff1660e01b81526004016116219190611a65565b602060405180830381865afa15801561163e573d6000803e3d6000fd5b505050506040513d601f19601f820116820180604052508101906116629190611beb565b73ffffffffffffffffffffffffffffffffffffffff16145b611685576000611688565b60015b9050611694565b600090505b92915050565b6040518060e0016040528060008152602001600073ffffffffffffffffffffffffffffffffffffffff16815260200160008152602001600073ffffffffffffffffffffffffffffffffffffffff168152602001600073ffffffffffffffffffffffffffffffffffffffff1681526020016000815260200160006002811115611725576117246117d2565b5b81525090565b600081519050919050565b600082825260208201905092915050565b6000819050602082019050919050565b6000819050919050565b61176a81611757565b82525050565b600073ffffffffffffffffffffffffffffffffffffffff82169050919050565b600061179b82611770565b9050919050565b6117ab81611790565b82525050565b60006117bc82611770565b9050919050565b6117cc816117b1565b82525050565b7f4e487b7100000000000000000000000000000000000000000000000000000000600052602160045260246000fd5b60038110611812576118116117d2565b5b50565b600081905061182382611801565b919050565b600061183382611815565b9050919050565b61184381611828565b82525050565b60e08201600082015161185f6000850182611761565b50602082015161187260208501826117a2565b5060408201516118856040850182611761565b50606082015161189860608501826117c3565b5060808201516118ab60808501826117c3565b5060a08201516118be60a0850182611761565b5060c08201516118d160c085018261183a565b50505050565b60006118e38383611849565b60e08301905092915050565b6000602082019050919050565b60006119078261172b565b6119118185611736565b935061191c83611747565b8060005b8381101561194d57815161193488826118d7565b975061193f836118ef565b925050600181019050611920565b5085935050505092915050565b6000602082019050818103600083015261197481846118fc565b905092915050565b600080fd5b61198a81611790565b811461199557600080fd5b50565b6000813590506119a781611981565b92915050565b6119b681611757565b81146119c157600080fd5b50565b6000813590506119d3816119ad565b92915050565b6000806000606084860312156119f2576119f161197c565b5b6000611a0086828701611998565b9350506020611a11868287016119c4565b9250506040611a22868287016119c4565b9150509250925092565b611a35816117b1565b82525050565b6000602082019050611a506000830184611a2c565b92915050565b611a5f81611757565b82525050565b6000602082019050611a7a6000830184611a56565b92915050565b600060208284031215611a9657611a9561197c565b5b6000611aa4848285016119c4565b91505092915050565b60008060408385031215611ac457611ac361197c565b5b6000611ad285828601611998565b9250506020611ae3858286016119c4565b9150509250929050565b600082825260208201905092915050565b7f5072696365206d757374206265206174206c6561737420312077656900000000600082015250565b6000611b34601c83611aed565b9150611b3f82611afe565b602082019050919050565b60006020820190508181036000830152611b6381611b27565b9050919050565b7f466565206d75737420626520657175616c20746f206c697374696e6720666565600082015250565b6000611ba0602083611aed565b9150611bab82611b6a565b602082019050919050565b60006020820190508181036000830152611bcf81611b93565b9050919050565b600081519050611be581611981565b92915050565b600060208284031215611c0157611c0061197c565b5b6000611c0f84828501611bd6565b91505092915050565b7f4e4654206d75737420626520617070726f76656420746f206d61726b65740000600082015250565b6000611c4e601e83611aed565b9150611c5982611c18565b602082019050919050565b60006020820190508181036000830152611c7d81611c41565b9050919050565b7f4e487b7100000000000000000000000000000000000000000000000000000000600052601160045260246000fd5b6000611cbe82611757565b91507fffffffffffffffffffffffffffffffffffffffffffffffffffffffffffffffff8203611cf057611cef611c84565b5b600182019050919050565b611d0481611790565b82525050565b611d1381611828565b82525050565b6000608082019050611d2e6000830187611cfb565b611d3b6020830186611cfb565b611d486040830185611a56565b611d556060830184611d0a565b95945050505050565b7f6964206d757374203c3d206974656d20636f756e740000000000000000000000600082015250565b6000611d94601583611aed565b9150611d9f82611d5e565b602082019050919050565b60006020820190508181036000830152611dc381611d87565b9050919050565b7f6974656d206d757374206265206f6e206d61726b657400000000000000000000600082015250565b6000611e00601683611aed565b9150611e0b82611dca565b602082019050919050565b60006020820190508181036000830152611e2f81611df3565b9050919050565b7f6d75737420626520746865206f776e6572000000000000000000000000000000600082015250565b6000611e6c601183611aed565b9150611e7782611e36565b602082019050919050565b60006020820190508181036000830152611e9b81611e5f565b9050919050565b6000819050919050565b6000611ec7611ec2611ebd84611770565b611ea2565b611770565b9050919050565b6000611ed982611eac565b9050919050565b6000611eeb82611ece565b9050919050565b611efb81611ee0565b82525050565b6000819050919050565b6000611f26611f21611f1c84611f01565b611ea2565b611757565b9050919050565b611f3681611f0b565b82525050565b6000608082019050611f516000830187611ef2565b611f5e6020830186611cfb565b611f6b6040830185611f2d565b611f786060830184611d0a565b95945050505050565b7f506c65617365207375626d6974207468652061736b696e672070726963650000600082015250565b6000611fb7601e83611aed565b9150611fc282611f81565b602082019050919050565b60006020820190508181036000830152611fe681611faa565b9050919050565b60006060820190506120026000830186611ef2565b61200f6020830185611cfb565b61201c6040830184611a56565b949350505050565b60006080820190506120396000830187611ef2565b6120466020830186611cfb565b6120536040830185611a56565b6120606060830184611d0a565b95945050505050565b7f4e487b7100000000000000000000000000000000000000000000000000000000600052604160045260246000fd5b7f4e487b7100000000000000000000000000000000000000000000000000000000600052603260045260246000fdfea26469706673582212208608126f864b7f94a5615b768b1f407e636a10ca074baebe87330c33d45fc21264736f6c63430008180033",
  "linkReferences": {},
  "deployedLinkReferences": {}
}